:020000040800F2
:10000000A80400209D0100084B0F0008590E0008AD
:10001000490F000885020008551400080000000080
:100020000000000000000000000000006F0F00084A
:1000300087020008000000006D0F0008710F000823
:10004000B7010008B7010008B7010008B7010008B0
:10005000B7010008B701000889020008B7010008CD
:10006000B7010008B7010008B7010008B701000890
:10007000B7010008B7010008B7010008B701000880
:10008000B7010008B7010008B7010008B701000870
:10009000B7010008B7010008B7010008B701000860
:1000A000B7010008B7010008B7010008B701000850
:1000B000B7010008B7010008B7010008B701000840
:1000C000B7010008B7010008B7010008B701000830
:1000D000B70100083D14000849140008B7010008E2
:1000E000B7010008B7010008B7010008B701000810
:1000F000B7010008B7010008B7010008B701000800
:10010000B7010008B7010008B7010008B7010008EF
:10011000B7010008B7010008B7010008B7010008DF
:10012000B7010008B7010008B7010008B7010008CF
:10013000B7010008B7010008B7010008B7010008BF
:10014000B7010008B7010008B7010008B7010008AF
:10015000B7010008B7010008B7010008B70100089F
:10016000B7010008B7010008B7010008B70100088F
:10017000B7010008B7010008B7010008000000003F
:10018000B7010008B7010008DFF80CD000F068F8EC
:100190000048004775140008A8040020064880475E
:1001A00006480047FEE7FEE7FEE7FEE7FEE7FEE75C
:1001B000FEE7FEE7FEE7FEE72110000889010008E0
:1001C0002DE9F05F0546002092469B46884606468C
:1001D000814640241BE0284641464746224600F01F
:1001E0002FF853465A46C01A914110D3114618466B
:1001F000224600F016F82D1A67EB01084F462246FA
:100200000120002100F00DF817EB00094E41201EDF
:10021000A4F10104DFDC484631462A464346BDE8E6
:10022000F09F202A04DB203A00FA02F100207047F8
:100230009140C2F1200320FA03F319439040704724
:10024000202A04DB203A21FA02F00021704721FA2B
:1002500002F3D040C2F12002914008431946704792
:10026000064C074D06E0E06840F0010394E8070003
:1002700098471034AC42F6D3FFF78AFF6C1500089C
:100280008C150008FEE77047012000F027B890F8B1
:100290003510022903D080214165012070470521D6
:1002A00080F835100068016821F00101016000202C
:1002B0007047000070B5044600F0FEF80546601C6B
:1002C00002D004480078044400F0F6F8401BA04235
:1002D000FAD370BD0400002070470000044910B537
:1002E0000A68024202D00860FFF7F6FF10BD000066
:1002F000143C01402DE9F84FDFF87CB100224FF0AB
:1003000001084FF0030A4FF00F090BF1040E00BF74
:100310000B6808FA02F42340A3426ED14D68022D07
:1003200001D0122D0ED1D50800EB850CDCF8205041
:100330005607F70E09FA07F6B5430E69BE402E437D
:10034000CCF82060066855000F790AFA05FC07F022
:10035000030726EA0C06AF40374307604E68012EBC
:1003600005D0022E03D0112E01D0122E0ED1866898
:10037000CF6826EA0C06AF40374387604668A6433D
:100380000C79C4F30014944034434460C6688C680C
:1003900026EA0C06AC403443C4604C68E40065D5E2
:1003A000364C256845F480452560246822F0030515
:1003B00004F480440094324C2E19D6F8084895076E
:1003C0002F0F09FA07F5AC432E4DA84201D10025A5
:1003D00024E02D4DA84201D101251FE02B4DA8425C
:1003E00001D102251AE02A4DA84201D1032515E0CA
:1003F000284DA84202D1042510E037E0264DA8423E
:1004000001D105250AE0254DA84201D1062505E0C8
:10041000234DA84201D1072500E00825BD40254312
:10042000C6F80858DBF800405D464E689C43F6036A
:1004300000D51C432C60DEF8004075464E689C4396
:10044000B60300D51C432C600B4D08352C684E6854
:100450009C43F60200D51C432C60074D0C352C68DC
:100460004E689C43B60200D51C432C60521C102AD7
:10047000FFF44EAFBDE8F88F003C01404438024025
:100480000030014000000240000402400008024029
:10049000000C02400010024000140240001802400C
:1004A000001C024042694A40426170470AB18161C2
:1004B00070470904FBE700000148806870470000AE
:1004C000040000200248816802781144816070476E
:1004D000040000200B4810B5016841F40071016070
:1004E000016841F480610160016841F4807101603C
:1004F000032000F097F8002000F006F800F024F840
:10050000002010BD003C024070B50D4D04464FF474
:100510007A712878B1FBF0F00A490968B1FBF0F074
:1005200000F01BFB48B9102C07D200222146501EB8
:1005300000F058F800206C6070BD012070BD000014
:1005400004000020000000201F4808B5016841F4A5
:1005500080410160006800F4804000901A48001F4C
:10056000016841F080510160006800F08050009007
:10057000032000F057F8002211466FF00B0000F046
:1005800031F8002211466FF00A0000F02BF800222B
:1005900011466FF0090000F025F800221146501FA7
:1005A00000F020F800221146101F00F01BF8002276
:1005B0001146901E00F016F80022BDE808401146D2
:1005C000501E00F00FB800004438024000F01F0237
:1005D000012191404009800000F1E020C0F80011A5
:1005E00070470000F0B40E4B1B680C46C3F30223A7
:1005F000C3F10705042D00D90425191D072901D2CF
:10060000002300E0DB1E012606FA05F1491E214009
:1006100099409E40761E16403143F0BC00F096BCD7
:100620000CED00E0064900F0070208684FF6FF03F2
:10063000184040EA0220034A104308607047000057
:100640000CED00E00000FA052DE9F0470E4605002C
:1006500065D0DFF81481D8F80000F7B200F00F0081
:10066000B04207D288F80070D8F8000000F00F0000
:10067000B04254D128683D4C810712D5400703D5BC
:10068000206840F4E05020602878000703D52068F7
:1006900040F4604020602068A96820F0F000084322
:1006A00020602878C0072DD03049686808390128B3
:1006B00012D0022813D0032811D009688907002915
:1006C0002DDA216821F0030101432160FFF7F4FED8
:1006D000814641F2883A0EE009688903EFE709682C
:1006E0008901ECE7FFF7E8FEA0EB0901514502D9CB
:1006F0000320BDE8F0872068696800F00C00B0EBCB
:10070000810FEFD1D8F80010404601F00F01B1423F
:1007100007D90770006800F00F00B04201D0012037
:10072000E7E72878400705D52068E96820F4E0501D
:10073000084320602878000706D52068296920F43E
:10074000604040EAC100206000F03CF82168084A9F
:10075000C1F30311515CC840064908600020FFF74F
:10076000D3FE0020C5E70000003C024008380240EC
:100770005415000800000020014800687047000080
:10078000000000200448054900680968044AC1F3D4
:100790008221515CC84070470000002008380240A8
:1007A000641500080448054900680968044AC1F353
:1007B0004231515CC84070470000002008380240B8
:1007C00064150008154810B5006810F00C021448B4
:1007D00013D04110042A0FD0082A0ED10F4C241F29
:1007E0002268236802F03F025B0207D52068C0F34D
:1007F0008810A0FB010106E0084610BD2168C1F386
:100800008811A1FB00010023FFF7DAFC2168C1F386
:100810000141491C4900B0FBF1F010BD083802400D
:100820000024F4002DE9F84F050076D02878DFF891
:10083000F8B2BE4CC00749D0DBF800105846C1F3EF
:100840008101012908D00068C0F3810002280AD183
:10085000201D0068400206D52068800336D56868F0
:100860000028E2D032E06868B0F5803F10D0B0F5E3
:10087000A02F206810D020F480302060206820F461
:10088000802020606868A0B1FFF716FE06460CE0E5
:10089000206840F48030F4E740F480202060F7E7DF
:1008A000FFF70AFE801B642873D820688003F7D501
:1008B0000CE0FFF701FE064605E000BFFFF7FCFD78
:1008C000801B6428F0D820688003F7D42878DFF8EC
:1008D000608280074FF000093ED5DBF800105846D3
:1008E00011F00C0F09D00068C0F3810002280BD171
:1008F0008D48001F0068400206D42068800715D587
:10090000E868012809D111E0E868B8B10120C8F809
:100910000000FFF7D1FD064605E002E1FFF7CCFD40
:10092000801B0228C0D820688007F7D52068296975
:1009300020F0F80040EAC10020600DE0C8F8009007
:10094000FFF7BAFD064604E0FFF7B6FD801B02285C
:100950001FD820688007F7D42878000722D5724E68
:10096000744869696C3671B101210160FFF7A4FD1B
:10097000074604E0FFF7A0FDC01B022809D8306835
:100980008007F7D50EE0C0F80090FFF795FD074609
:1009900005E083E0FFF790FDC01B02287ED8306899
:1009A0008007F7D42878400768D5DFF87CA10027B6
:1009B0000AF1380ADAF80000C0000BD4DAF80010A7
:1009C00041F08051CAF80010DAF80000012700F069
:1009D00080500090584E3068C00510D4306840F404
:1009E00080703060FFF768FD009005E0FFF764FD60
:1009F0000099401A022851D83068C005F6D54A4EF1
:100A0000A868683601280FD00528306810D020F07B
:100A100001003060306820F004003060A868B8B190
:100A2000FFF74AFD00900FE0306840F00100F4E766
:100A300040F004003060F7E7FFF73EFD0099411AEF
:100A400041F28830814264D830688007F4D50EE0E6
:100A5000FFF732FD009007E0FFF72EFD0099411AE5
:100A600041F28830814254D830688007F4D42FB1E5
:100A7000DAF8001021F08051CAF80010A869C0B35C
:100A8000DBF80010C1F3810102294AD00228484650
:100A900007D0C8F86000FFF70FFD00E039E0054619
:100AA0003AE04746C8F86000FFF706FD064604E056
:100AB000FFF702FD801B02282BD820688001F7D4A5
:100AC000D5E907010843A96A1C4A490802EB01411C
:100AD0006A6A41EA8211084395F82C1040EA0161E4
:100AE0001148001F016001203866FFF7E5FC05464C
:100AF00005E014E0FFF7E0FC401B022809D820685D
:100B00008001F7D50BE000BFFFF7D6FC401B0228A1
:100B100002D90320BDE8F88F20688001F4D40020BA
:100B2000F8E70120F6E700000838024000380240EC
:100B300000004742800E4742007000400000FFFF67
:100B40004FF0E0210428086903D020F00400086178
:100B5000704740F00400FAE7704710B5401EB0F14E
:100B6000807F01D3012010BD4FF0E02460610F2190
:100B7000601700F0EBF90020A06107202061002041
:100B800010BD10B5FFF7E8FF10BD704770B50268E3
:100B900004461068D168536910F00F0F51D003F06C
:100BA000010501F4907635435DD0C20705D0CA0532
:100BB00003D5E26B42F00102E263420705D5DA0792
:100BC00003D0E26B42F00202E263820705D5DA0746
:100BD00003D0E26B42F00402E263020705D5DA07B4
:100BE00003D0E26B42F00802E263E26B002A34D0E9
:100BF000800604D5880602D5204600F051FA206808
:100C00004069E16BC0F3801001F008010143204608
:100C100024D000F037FA2068416949061AD54169A5
:100C200021F040014161606BA0B11B490165606B1F
:100C3000FFF72DFB002810D0606B016DBDE8704000
:100C4000084783060FD58B060DD52046BDE87040BA
:100C500000F026BA2046FFF798FF70BDFFF795FF1A
:100C60000020E06370BD030606D50B0604D52046C0
:100C7000BDE8704000F0B0BB4006F3D54806F1D5A2
:100C8000D168204621F04001D160202184F839103C
:100C900000F0E1F870BD00007510000870B50400A8
:100CA00004D094F83900002510B106E0012070BD91
:100CB00084F83850204600F023F8242084F83900C6
:100CC0002068C16821F40051C160204600F02EFA6E
:100CD0002068016921F4904101612068416921F097
:100CE0002A0141612068C16841F40051C160E56397
:100CF000202084F8390084F83A00002070BD0000FC
:100D000030B500681E4D022101220323072487B05D
:100D1000A84216D11B48056845F01005056000681B
:100D200000F010000590C0208DE81F0069461648AD
:100D3000FFF7E0FA002211462520FFF753FC25209B
:100D400019E0124DA84218D10E48001F056845F45D
:100D500000350560006800F4003005900C208DE837
:100D60001F0069460A48FFF7C5FA002211462620EF
:100D7000FFF738FC2620FFF729FC07B030BD000044
:100D8000001001404438024000040240004400408A
:100D90000000024090F83A30202B1DD1D1B1CAB1E9
:100DA00090F83830012B17D081628285C2850021EE
:100DB000C163222280F83A2080F8381001684A691D
:100DC00042F001024A610068C16841F49071C1605B
:100DD00000207047012070470220704710B50C4971
:100DE00000680968884211D109490B224B31084833
:100DF000FFF7D0FF06484B300078302806D1BDE819
:100E000010404FF480510348FFF74CBB10BD000069
:100E100050000020000C024090F83930202B18D1EF
:100E2000A9B1A2B190F83830012B12D001628284AE
:100E3000C2840021C163212280F8392080F8381053
:100E40000068C16841F08001C16000207047012046
:100E50007047022070477047FEE700002DE9F04F11
:100E6000344887B00024016841F0800101600168C6
:100E700001F080010591016841F001010160016804
:100E800001F001010591016841F00801016001686C
:100E900001F008010591016841F00201016000685C
:100EA000DFF8949000F002000590002202214846ED
:100EB000FFF7FCFADFF884A04FF4405800224146C7
:100EC0005046FFF7F3FADFF878B0002220215846A9
:100ED000FFF7ECFA01251B480095CDE901046946AE
:100EE0004846FFF707FA0226032703970096CDE945
:100EF000015469464846FFF7FDF9CDF80080039696
:100F0000CDE9015469465046FFF7F4F92020CDE9B8
:100F10000005CDE9024769465846FFF7EBF9002284
:100F200011460620FFF75EFB0620FFF74FFB07B0D8
:100F3000BDE8F08F3038024000000240000C024053
:100F40000004024000001110FEE770470907090E77
:100F5000002806DA00F00F0000F1E02080F8141DF0
:100F6000704700F1E02080F8001470477047704728
:100F700010B5FFF7A7FABDE81040FFF702BE00006A
:100F800030B5254893B00025016841F080510160DB
:100F9000006800F0805011902048016841F48041C1
:100FA00001600068022400F480401190012000904C
:100FB000000401908001CDE90640082008904FF41C
:100FC000A870CDE9090404200B906846FFF72AFCBD
:100FD00000B1FEE70CA90F2081E831004FF4A050CA
:100FE0000F904FF48050109005210CA8FFF72CFBB8
:100FF00000B1FEE7FFF7C0FB4FF47A71B0FBF1F0F0
:10100000FFF7ABFD0420FFF79BFD00221146501EA9
:10101000FFF7E8FA13B030BD4038024000700040DE
:101020001048016841F4700101600F48016841F007
:10103000010101600C4A00210832116002680B4B6B
:101040001A400260031D0A4A1A60026822F48022D4
:10105000026005480C30016002495806803908607A
:101060007047000088ED00E000380240FFFFF6FE08
:101070001030002410B5806B0021C185C184FFF7BA
:1010800084FD10BD0168CA6822F49072CA600168CC
:101090004A6922F001024A61202180F83A10704723
:1010A00010B590F83A10222901D0022010BD8168B5
:1010B000B1F5805F11D00169002901681FD049682E
:1010C00001F07F03816A4A1C82620B70C18D491E48
:1010D0000904090CC18518D026E00269816A002A3A
:1010E0000268526805D0D2B20A80816A491C8162C6
:1010F000ECE7C2F308020A80816A891CF7E74A68B4
:10110000816A4B1C83620A70E0E70168CA6822F4B6
:101110009072CA6001684A6922F001024A61202186
:1011200080F83A10FFF75AFE002010BD2DE9F0417B
:1011300004460068016921F44052E16811430161ED
:101140002168C86849F20C6290432369A268E56986
:101150001A4363692B431A430243CA6021684869F2
:1011600020F44072A06910434861E1696425B1F53B
:10117000004F9748974A21684FF032083FD091427C
:1011800001D081427CD1FFF70DFB00EBC00101EBE8
:10119000001061688900B0FBF1F6FFF703FB00EB7C
:1011A000C00101EB001061688900B0FBF1F0B0FBF9
:1011B000F5F06FF01801484306EB800108EB0110D1
:1011C000B0FBF5F000F0F006FFF7ECFA00EBC00121
:1011D00001EB001061688900B0FBF1F0B0FBF5F0A5
:1011E00006EB0016FFF7DEFA00EBC00101EB001082
:1011F00061688900B0FBF1F7FFF7D4FAD2E09142C1
:1012000001D081423DD1FFF7CDFA00EBC00101EBE7
:10121000001061684900B0FBF1F0B0FBF5F0060189
:10122000FFF7C0FA00EBC00101EB00106168490054
:10123000B0FBF1F7FFF7B6FA00EBC00101EB0010CD
:1012400061684900B0FBF1F0B0FBF5F06FF01801F8
:10125000484307EB800108EBC100B0FBF5F000F05C
:10126000F80006EB4006FFF79DFA00EBC00101EB2A
:10127000001061684900B0FBF1F7FFF793FA3CE01A
:1012800055E0FFF77FFA00EBC00101EB0010616849
:101290004900B0FBF1F0B0FBF5F00601FFF772FA80
:1012A00000EBC00101EB001061684900B0FBF1F7F1
:1012B000FFF768FA00EBC00101EB0010616849001C
:1012C000B0FBF1F0B0FBF5F06FF01801484307EB0D
:1012D000800108EBC100B0FBF5F000F0F80006EB70
:1012E0004006FFF74FFA00EBC00101EB0010616808
:1012F0004900B0FBF1F7FFF745FA00EBC00101EB45
:10130000001061684900B0FBF1F0B0FBF5F06FF040
:101310001801484307EB800108EBC100B0FBF5F072
:1013200000F00700216830448860BDE8F081FFF7D5
:1013300029FA00EBC00101EB001061688900B0FBE5
:10134000F1F6FFF71FFA00EBC00101EB0010616836
:101350008900B0FBF1F0B0FBF5F06FF018014843E5
:1013600006EB800108EB0110B0FBF5F000F0F00691
:10137000FFF708FA00EBC00101EB0010616889007B
:10138000B0FBF1F0B0FBF5F006EB0016FFF7FAF951
:1013900000EBC00101EB001061688900B0FBF1F7C0
:1013A000FFF7F0F900EBC00101EB00106168890064
:1013B000B0FBF1F0B0FBF5F06FF01801484307EB1C
:1013C000800108EB0110B0FBF5F000F00F00A9E779
:1013D000001401400010014090F83910212901D07B
:1013E000022070478168B1F5805F016A0BD04A1C0A
:1013F0000262026809785160C18C491E0904090C17
:10140000C1840ED017E009880268C1F30801516059
:1014100001690029016A02D0491C0162ECE7891CBC
:10142000FBE70168CA6822F08002CA600068C168F0
:1014300041F04001C1600020704700000148FFF703
:10144000A5BB0000100000200148FFF79FBB000073
:1014500050000020FEE702E008C8121F08C1002A61
:10146000FAD170477047002001E001C1121F002A25
:10147000FBD17047FFF72EF8FFF782FDFFF7EEFC78
:10148000164815494FF4165500240160C0E901546F
:101490000C26C460C0E904468461C461FFF7FEFB0A
:1014A00000B1FEE70D480E4940300160C0E901542B
:1014B000C460C0E904468461C461FFF7EFFB00B17A
:1014C000FEE706490B228B31A1F14B00FFF762FCCE
:1014D00000F024F8FCE7000000100140100000209C
:1014E0000044004010B50B4C012220212046FEF79D
:1014F000DDFF09490B22A1F18000FFF78DFC4FF4BD
:101500007A70FEF7D7FE20460022BDE81040202169
:10151000FEF7CCBF00040240900000200C483021B0
:10152000017031214170322181703321C170342129
:10153000017135214171362181713721C171382105
:1015400001723921417245218172FFF7CBBF000042
:1015500090000020000000000000000001020304D1
:101560000607080900000000010203048C150008AA
:101570000000002010000000561400089C15000810
:101580001000002098040000661400080024F400F5
:0C1590000100000010000000000000003E
:040000050800018965
:00000001FF
