:02000000D52900
:10000800FF00030E8301CE000A08CD008A017008A4
:10001800A1007108A0000408A2008C1E4C28C3216E
:100028007008003A031D19281328C3217008013AE3
:10003800031D4C28CA217008CC007008533A031DD0
:1000480030280130A9000030AA00A4012408363E57
:1000580084004C088000A40A4C08533A03193E282F
:100068004C08453A03193E282408363E84004C08BB
:100078008000A40A4C08453A031D4C282408363E43
:1000880084004C088000A4010130A300A901AA0142
:100098002108F0002008F100220884004D088A0099
:0A00A8004E0E8300FF0E7F0E0900CC
:1000B200710DF80DF90D7408F8027508031C750F1F
:1000C200F902F00DF10D0F30FC00710DF80DF90D74
:1000D2007408701C7228F8027508031C750FF90267
:1000E2007728F80775080318750FF907F00DF10D59
:1000F200FC0B6628701883287408F8077508031823
:08010200750FF9070000080069
:0E010A0000308316031398180130F00008002F
:10011800831603139818922800008C288312550818
:040128009900080032
:10012C00043083120313FC003A30FD00FD0B9C28B5
:08013C00FC0B9C2800000800E8
:10014400831203137408003A031DB1287508003A9A
:10015400031DB128FF30F0007F30F1000A2983121B
:100164000313FD01F901F801710870040319003447
:1001740071087506FA00FA1BFD09FB01F51FC72873
:10018400F409F509F40A0319F50AF11FCE28F00958
:10019400F109F00A0319F10A71087504FA00FA1B4F
:1001A400E32859207B18F628FD1F0034F009F109D3
:1001B400F00A0319F10AF809F909F80A0319F90A06
:1001C4000034F51FF228F11BEE287108F9007008BD
:1001D400F800F101F001D628F101F001F00A003431
:1001E400F109F009FB0AD328F80A0319F90A74087B
:1001F4007802031DD62875087902031DD628F90153
:10020400F801F00A0319F10AF11FD6280000FF349F
:020214000800E0
:0E0216008312031343088A0042088200080086
:1002240083120313D4015008F1000130F000710867
:1002340003192029F00D7010FF3E1A297008D3000D
:100244004F08840070080005F10071080130031D97
:100254000030F0005208F006031948295108003C08
:100264000318382996209620D10330294F0884009A
:1002740053080005F10071080130031D0030F0003F
:100284005208F00603194829FF30D4005408F0003E
:02029400080060
:10029600023083120313F4000030F5004F08F0001B
:1002A6005008F100A2207808F0007908F10000302B
:1002B6007106031D602900307006031D6529303064
:0A02C600B40067293130B4000800CD
:1002D0008312031386150330FB008A30FC0055306F
:1002E000FD00FD0B7129FC0B7129FB0B712900002E
:1002F0000000D001D1018030F00080305106700242
:10030000031D842950080A3C031C97298520700886
:10031000003A031D8C298629831250084F07840058
:100320000008D5008C20D00A0319D10A7B2903309C
:10033000FB008A30FC005530FD00FD0B9D29FC0BB5
:0E0340009D29FB0B9D2900000000861108007E
:10034E008316031398169030831298008316861422
:10035E00061183128C1EB6291A08F000B029080067
:10036E000B218A110A128000840AC20A0319C30AD9
:08037E00F003031DB72908007C
:0E0386000030831203138C1A0130F0000800BF
:10039400831203131A08F100981CD2291812181694
:0603A4007108F0000800E2
:1003AA0083120313A301A4010130A500A6010130A1
:1003BA00A700A801A901AA01831606140616861128
:1003CA00831241108130831699001815A721033032
:1003DA00FB008A30FC005530FD00FD0BF229FC0BB6
:1003EA00F229FB0BF2290000000083168C160C126E
:1003FA000B178B1730308312C6003430C7003030E9
:10040A00C4003430C5003030CA003530CB0030303B
:10041A00C8003530C9000330FB008A30FC00553073
:10042A00FD00FD0B162AFC0B162AFB0B162A0000F0
:10043A0000000630CF00D0010130D1000130D200D7
:10044A001221700803192A2A4114411C9B2A0630DA
:10045A00CF00D0010130D100D20112217008031956
:10046A009B2A8230FC00DD30FD00FD0B3A2AFC0B92
:10047A003A2A00000000411C9B2A0630CF00D00116
:10048A000130D100D2011221700803199B2A53307E
:10049A00AB003030AC003030AD004230AE0030300E
:1004AA00AF003430B0004430B1003030B2003430E4
:1004BA00B3003030B4004530B5002708CF00280813
:1004CA00D0004B21A70A0319A80A00302A06031DE7
:1004DA00702A01302906031D732A6A2A4130FC005A
:1004EA00EE30FD00FD0B772AFC0B772A00002B303B
:1004FA00CF0068210330FB008A30FC005530FD0034
:10050A00FD0B852AFC0B852AFB0B852A00000000BF
:10051A0041100D30FB00AF30FC00B630FD00FD0B82
:10052A00942AFC0B942AFB0B942A00000630CF0075
:10053A000430D0000130D1000130D20012217008FD
:10054A000319A82A4114411C1B2B0630CF00043082
:10055A00D0000130D100D2011221700803191B2BDF
:10056A008230FC00DD30FD00FD0BB92AFC0BB92AF4
:10057A0000000000411C1B2B0630CF000430D000C5
:10058A000130D100D2011221700803191B2B5330FC
:10059A00AB003030AC003030AD004230AE0030300D
:1005AA00AF003530B0004430B1003030B2003530E1
:1005BA00B3003030B4004530B5002508CF00260816
:1005CA00D0004B21A50A0319A60A00302A06031DEA
:1005DA00F02A01302906031DF32AEA2A4130FC00D9
:1005EA00EE30FD00FD0BF72AFC0BF72A00002B303A
:1005FA00CF0068210330FB008A30FC005530FD0033
:10060A00FD0B052BFC0B052BFB0B052B000000003B
:10061A0041100D30FB00AF30FC00B630FD00FD0B81
:10062A00142BFC0B142BFB0B142B00001E2A1C2B67
:02400E006A2125
:00000001FF
