:02000000842852
:10000800FF00030E8301B8000A08B7008A017008D0
:10001800A0000408A1008C1E442872207008003A31
:10002800031D1728112872207008013A031D44285F
:1000380079207008B2007008533A031D2A28A201DB
:100048002208273E840032088000A20A3208533A68
:10005800031938283208453A031938282208273E58
:10006800840032088000A20A3208453A031D442859
:100078002208273E840032088000A2010130A30034
:100088002008F0002108840037088A00380E830011
:06009800FF0E7F0E0900BF
:0E009E008312031326088A002508820008003A
:1000AC004F208A110A128000840AA50A0319A60A95
:0800BC00F003031D56280800A3
:1000C40083160313981690308312980083168614AF
:1000D400061183128C1E71281A08F0006B28080080
:0E00E4000030831203138C1A0130F000080064
:1000F200831203131A08F100981C8128181218168B
:060102007108F000080086
:1001080083120313A201A301831606100612861197
:100118008312241081308316990018156220033049
:10012800FB008A30FC005530FD00FD0B9928FC0BC4
:100138009928FB0B99280000000083168C160C12D6
:100148000B178B1730308312B3003430B4003030C3
:10015800B5003530B6000330FB008A30FC0055305E
:10016800FD00FD0BB528FC0BB528FB0BB5280000DE
:1001780000001A30FB005E30FC006E30FD00FD0B05
:10018800C328FC0BC328FB0BC32800000614061663
:100198000D30FB00AF30FC00B630FD00FD0BD2285F
:1001A800FC0BD228FB0BD2280000061006122308ED
:1001B800013A031D1029A3012808313A031D10290B
:1001C8002908303A031D10292A08443A031D10292A
:1001D8002B083306031DFE282C083406031DFE28B1
:1001E8003008313A031DF92806143008303A031D47
:1001F800FE2806102B083506031D10292C08360684
:10020800031D10293008313A031D0B290616300842
:0C021800303A031D10290612DB281129C2
:02400E006A2125
:00000001FF
