:020000040800F2
:10000000100400209D010008C30A0008BF0A000870
:10001000C10A000885020008E90B00080000000082
:10002000000000000000000000000000E70A0008D7
:100030008702000800000000E50A0008E90A00083D
:10004000B7010008B7010008B7010008B7010008B0
:10005000B7010008B7010008B7010008B7010008A0
:10006000B7010008B7010008B7010008B701000890
:10007000B7010008B7010008B7010008B701000880
:10008000B7010008B7010008B7010008B701000870
:10009000B7010008B7010008B7010008B701000860
:1000A000B7010008B7010008B7010008B701000850
:1000B000B7010008B7010008B7010008B701000840
:1000C000B7010008B7010008B7010008B701000830
:1000D000B7010008B7010008B7010008B701000820
:1000E000B7010008B7010008B7010008B701000810
:1000F000B7010008B7010008B7010008B701000800
:10010000B7010008B7010008B7010008B7010008EF
:10011000B7010008B7010008B7010008B7010008DF
:10012000B7010008B7010008B7010008B7010008CF
:10013000B7010008B7010008B7010008B7010008BF
:10014000B7010008B7010008B7010008B7010008AF
:10015000B7010008B7010008B7010008B70100089F
:10016000B7010008B7010008B7010008B70100088F
:10017000B7010008B7010008B7010008000000003F
:10018000B7010008B7010008DFF80CD000F068F8EC
:1001900000480047090C000810040020064880476A
:1001A00006480047FEE7FEE7FEE7FEE7FEE7FEE75C
:1001B000FEE7FEE7FEE7FEE7950B00088901000871
:1001C0002DE9F05F0546002092469B46884606468C
:1001D000814640241BE0284641464746224600F01F
:1001E0002FF853465A46C01A914110D3114618466B
:1001F000224600F016F82D1A67EB01084F462246FA
:100200000120002100F00DF817EB00094E41201EDF
:10021000A4F10104DFDC484631462A464346BDE8E6
:10022000F09F202A04DB203A00FA02F100207047F8
:100230009140C2F1200320FA03F319439040704724
:10024000202A04DB203A21FA02F00021704721FA2B
:1002500002F3D040C2F12002914008431946704792
:10026000064C074D06E0E06840F0010394E8070003
:1002700098471034AC42F6D3FFF78AFF840C00088D
:10028000A40C0008FEE7704770B5044600F0F0F8D3
:100290000546601C02D004480078044400F0E8F8E9
:1002A000401BA042FAD370BD040000202DE9F84F96
:1002B000DFF87CB100224FF001084FF0030A4FF045
:1002C0000F090BF1040E00BF0B6808FA02F423407B
:1002D000A3426ED14D68022D01D0122D0ED1D5084A
:1002E00000EB850CDCF820505607F70E09FA07F6EC
:1002F000B5430E69BE402E43CCF820600668550019
:100300000F790AFA05FC07F0030726EA0C06AF404E
:10031000374307604E68012E05D0022E03D0112E00
:1003200001D0122E0ED18668CF6826EA0C06AF40A7
:10033000374387604668A6430C79C4F300149440A1
:1003400034434460C6688C6826EA0C06AC403443EB
:10035000C4604C68E40065D5364C256845F480459A
:100360002560246822F0030504F480440094324C94
:100370002E19D6F8084895072F0F09FA07F5AC4350
:100380002E4DA84201D1002524E02D4DA84201D1D7
:1003900001251FE02B4DA84201D102251AE02A4D6C
:1003A000A84201D1032515E0284DA84202D1042519
:1003B00010E037E0264DA84201D105250AE0254D81
:1003C000A84201D1062505E0234DA84201D1072509
:1003D00000E00825BD402543C6F80858DBF800407A
:1003E0005D464E689C43F60300D51C432C60DEF846
:1003F000004075464E689C43B60300D51C432C60F4
:100400000B4D08352C684E689C43F60200D51C4302
:100410002C60074D0C352C684E689C43B60200D505
:100420001C432C60521C102AFFF44EAFBDE8F88F1D
:10043000003C0140443802400030014000000240CE
:100440000004024000080240000C0240001002407C
:100450000014024000180240001C024042694A4059
:10046000426170470AB1816170470904FBE70000EF
:10047000014880687047000004000020024881683D
:100480000278114481607047040000200B4810B5C9
:10049000016841F400710160016841F4806101600C
:1004A000016841F480710160032000F075F80020BC
:1004B00000F006F800F024F8002010BD003C0240D7
:1004C00070B50D4D04464FF47A712878B1FBF0F009
:1004D0000A490968B1FBF0F000F0D9FA48B9102CCC
:1004E00007D200222146501E00F036F800206C6032
:1004F00070BD012070BD000004000020000000203D
:1005000010B5032000F048F8002211466FF00B00F0
:1005100000F022F8002211466FF00A0000F01CF8EB
:10052000002211466FF0090000F016F80022114673
:10053000501F00F011F800221146101F00F00CF8B7
:1005400000221146901E00F007F80022BDE810407E
:100550001146501EAFF30080F0B40E4B1B680C46E2
:10056000C3F30223C3F10705042D00D90425191D87
:10057000072901D2002300E0DB1E012606FA05F15F
:10058000491E214099409E40761E16403143F0BCE2
:1005900000F098BA0CED00E0064900F00702086888
:1005A0004FF6FF03184040EA0220034A1043086058
:1005B000704700000CED00E00000FA052DE9F0475F
:1005C0000E46050065D0DFF81481D8F80000F7B2B8
:1005D00000F00F00B04207D288F80070D8F8000091
:1005E00000F00F00B04254D128683D4C810712D56D
:1005F000400703D5206840F4E050206028780007C9
:1006000003D5206840F4604020602068A96820F08D
:10061000F000084320602878C0072DD03049686872
:100620000839012812D0022813D0032811D00968F4
:10063000890700292DDA216821F003010143216097
:10064000FFF716FF814641F2883A0EE009688903F8
:10065000EFE709688901ECE7FFF70AFFA0EB090162
:10066000514502D90320BDE8F0872068696800F091
:100670000C00B0EB810FEFD1D8F80010404601F02C
:100680000F01B14207D90770006800F00F00B042B7
:1006900001D00120E7E72878400705D52068E96800
:1006A00020F4E050084320602878000706D5206831
:1006B000296920F4604040EAC100206000F01CF885
:1006C0002168084AC1F30311515CC840064908601B
:1006D0000020FFF7F5FE0020C5E70000003C0240C7
:1006E00008380240740C000800000020014800682F
:1006F0007047000000000020154810B5006810F099
:100700000C02144813D04110042A0FD0082A0ED12D
:100710000F4C241F2268236802F03F025B0207D5BA
:100720002068C0F38810A0FB010106E0084610BD58
:100730002168C1F38811A1FB00010023FFF740FDF0
:100740002168C1F30141491C4900B0FBF1F010BD23
:10075000083802400024F4002DE9F84F050076D057
:100760002878DFF8F8B2BE4CC00749D0DBF800109B
:100770005846C1F38101012908D00068C0F3810007
:1007800002280AD1201D0068400206D52068800397
:1007900036D568680028E2D032E06868B0F5803F5E
:1007A00010D0B0F5A02F206810D020F48030206049
:1007B000206820F4802020606868A0B1FFF758FE10
:1007C00006460CE0206840F48030F4E740F48020D6
:1007D0002060F7E7FFF74CFE801B642873D8206881
:1007E0008003F7D50CE0FFF743FE064605E000BFA7
:1007F000FFF73EFE801B6428F0D820688003F7D402
:100800002878DFF8608280074FF000093ED5DBF8DA
:100810000010584611F00C0F09D00068C0F3810099
:1008200002280BD18D48001F0068400206D42068C2
:10083000800715D5E868012809D111E0E868B8B14A
:100840000120C8F80000FFF713FE064605E002E1AC
:10085000FFF70EFE801B0228C0D820688007F7D55E
:100860002068296920F0F80040EAC10020600DE00E
:10087000C8F80090FFF7FCFD064604E0FFF7F8FD1E
:10088000801B02281FD820688007F7D4287800072B
:1008900022D5724E744869696C3671B101210160CC
:1008A000FFF7E6FD074604E0FFF7E2FDC01B022864
:1008B00009D830688007F7D50EE0C0F80090FFF740
:1008C000D7FD074605E083E0FFF7D2FDC01B0228F5
:1008D0007ED830688007F7D42878400768D5DFF8DD
:1008E0007CA100270AF1380ADAF80000C0000BD416
:1008F000DAF8001041F08051CAF80010DAF8000070
:10090000012700F080500090584E3068C00510D488
:10091000306840F480703060FFF7AAFD009005E079
:10092000FFF7A6FD0099401A022851D83068C0058B
:10093000F6D54A4EA868683601280FD005283068D9
:1009400010D020F001003060306820F004003060EA
:10095000A868B8B1FFF78CFD00900FE0306840F058
:100960000100F4E740F004003060F7E7FFF780FD96
:100970000099411A41F28830814264D8306880077A
:10098000F4D50EE0FFF774FD009007E0FFF770FD6F
:100990000099411A41F28830814254D8306880076A
:1009A000F4D42FB1DAF8001021F08051CAF8001009
:1009B000A869C0B3DBF80010C1F3810102294AD055
:1009C0000228484607D0C8F86000FFF751FD00E054
:1009D00039E005463AE04746C8F86000FFF748FDB1
:1009E000064604E0FFF744FD801B02282BD8206850
:1009F0008001F7D4D5E907010843A96A1C4A4908D0
:100A000002EB01416A6A41EA8211084395F82C1011
:100A100040EA01611148001F016001203866FFF7BC
:100A200027FD054605E014E0FFF722FD401B0228E4
:100A300009D820688001F7D50BE000BFFFF718FD4B
:100A4000401B022802D90320BDE8F88F20688001EE
:100A5000F4D40020F8E70120F6E70000083802404F
:100A60000038024000004742800E474200700040BC
:100A70000000FFFF4FF0E0210428086903D020F0B8
:100A800004000861704740F00400FAE7704710B5B1
:100A9000401EB0F1807F01D3012010BD4FF0E02453
:100AA00060610F21601700F00DF80020A0610720A1
:100AB0002061002010BD10B5FFF7E8FF10BDFEE774
:100AC000FEE770470907090E002806DA00F00F005C
:100AD00000F1E02080F8141D704700F1E02080F85C
:100AE000001470477047704710B5FFF7C7FCBDE8AA
:100AF0001040FFF7E0BF000030B5244893B0002558
:100B0000016841F080510160006800F08050119050
:100B10001F48016841F4804101600068022400F42C
:100B20008040119001200090000401908001CDE9E7
:100B30000640082008904FF4A870CDE9090404206D
:100B40000B906846FFF708FE00B1FEE70CA90F20E6
:100B500081E831004FF4A0500F90109005210CA8AF
:100B6000FFF72CFD00B1FEE7FFF7C0FD4FF47A71EF
:100B7000B0FBF1F0FFF78BFF0420FFF77BFF0022B3
:100B80001146501EFFF7E8FC13B030BD403802405C
:100B9000007000401048016841F4700101600F4886
:100BA000016841F0010101600C4A00210832116026
:100BB00002680B4B1A400260031D0A4A1A60026861
:100BC00022F48022026005480C3001600249580678
:100BD000803908607047000088ED00E0003802406E
:100BE000FFFFF6FE10300024FEE702E008C8121FE7
:100BF00008C1002AFAD170477047002001E001C106
:100C0000121F002AFBD1704786B0FFF73FFCFFF7A9
:100C100073FF16480025016841F0800101600168FA
:100C200001F080010591016841F008010160006850
:100C30000F4E00F008004FF4704405902A462146FC
:100C40003046FFF70FFC0120CDE900400220CDE93E
:100C5000025069463046FFF729FB21463046FFF730
:100C6000FDFBC820FFF710FBF7E70000303802401B
:100C7000000C02400000000000000000010203041C
:100C800006070809A40C000800000020100000005E
:100C9000EA0B0008B40C000810000020000400005B
:100CA000FA0B00080024F40001000000100000000E
:040CB0000000000040
:040000050800018965
:00000001FF
