:02000000D52900
:10000800FF00030E8301C7000A08C8008A017008B0
:10001800A1007108A0000408A2008C1E4C28C3216E
:100028007008003A031D19281328C3217008013AE3
:10003800031D4C28CA217008B7007008533A031DE5
:1000480030280130A5000030A600A3012308383E5F
:10005800840037088000A30A3708533A03193E285A
:100068003708453A03193E282308383E84003708E4
:100078008000A30A3708453A031D4C282308383E58
:10008800840037088000A3010130A400A501A6015F
:100098002108F0002008F1002208840048088A009E
:0A00A800470E8300FF0E7F0E0900D3
:1000B200710DF80DF90D7408F8027508031C750F1F
:1000C200F902F00DF10D0F30FC00710DF80DF90D74
:1000D2007408701C7228F8027508031C750FF90267
:1000E2007728F80775080318750FF907F00DF10D59
:1000F200FC0B6628701883287408F8077508031823
:08010200750FF9070000080069
:0E010A0000308316031398180130F00008002F
:10011800831603139818922800008C2883124F081E
:040128009900080032
:10012C00043083120313FC003A30FD00FD0B9C28B5
:08013C00FC0B9C2800000800E8
:10014400831203137408003A031DB1287508003A9A
:10015400031DB128FF30F0007F30F1000A2983121B
:100164000313FD01F901F801710870040319003447
:1001740071087506FA00FA1BFD09FB01F51FC72873
:10018400F409F509F40A0319F50AF11FCE28F00958
:10019400F109F00A0319F10A71087504FA00FA1B4F
:1001A400E32859207B18F628FD1F0034F009F109D3
:1001B400F00A0319F10AF809F909F80A0319F90A06
:1001C4000034F51FF228F11BEE287108F9007008BD
:1001D400F800F101F001D628F101F001F00A003431
:1001E400F109F009FB0AD328F80A0319F90A74087B
:1001F4007802031DD62875087902031DD628F90153
:10020400F801F00A0319F10AF11FD6280000FF349F
:020214000800E0
:0E021600831203132A088A00290882000800B8
:1002240083120313CE014A08F1000130F000710873
:1002340003192029F00D7010FF3E1A297008CD0013
:100244004908840070080005F10071080130031D9D
:100254000030F0004C08F006031948294B08003C14
:100264000318382996209620CB03302949088400A6
:100274004D080005F10071080130031D0030F00045
:100284004C08F00603194829FF30CE004E08F00050
:02029400080060
:10029600023083120313F4000030F5004908F00021
:1002A6004A08F100A2207808F0007908F100003031
:1002B6007106031D602900307006031D6529303064
:0A02C600B50067293130B5000800CB
:1002D0008312031386150330FB008A30FC0055306F
:1002E000FD00FD0B7129FC0B7129FB0B712900002E
:1002F0000000CA01CB018030F00080304B06700254
:10030000031D84294A080A3C031C9729852070088C
:10031000003A031D8C29862983124A084907840064
:100320000008CF008C20CA0A0319CB0A7B290330AE
:10033000FB008A30FC005530FD00FD0B9D29FC0BB5
:0E0340009D29FB0B9D2900000000861108007E
:10034E008316031398169030831298008316861422
:10035E00061183128C1EB6291A08F000B029080067
:10036E000B218A110A128000840AA90A0319AA0A0B
:08037E00F003031DB72908007C
:0E0386000030831203138C1A0130F0000800BF
:10039400831203131A08F100981CD2291812181694
:0603A4007108F0000800E2
:1003AA0083120313A301A401A501A6010130A7002A
:1003BA00A801831606140616861183122B108130A3
:1003CA00831699001815A7210330FB008A30FC0018
:1003DA005530FD00FD0BEF29FC0BEF29FB0BEF2934
:1003EA000000000083168C160C120B178B17313085
:1003FA008312C5003030C6003030C3003230C4002A
:10040A000330FB008A30FC005530FD00FD0B0B2A3F
:10041A00FC0B0B2AFB0B0B2A000000000630C9005C
:10042A00CA010130CB000130CC0012217008031937
:10043A001F2A2B142B1C902A0630C900CA0101302E
:10044A00CB00CC01122170080319902A8230FC00DB
:10045A00DD30FD00FD0B2F2AFC0B2F2A00000000C7
:10046A002B1C902A0630C900CA010130CB00CC01EE
:10047A00122170080319902A5330AC003030AD00B5
:10048A003030AE004230AF003130B0003030B10011
:10049A004430B2003030B3003230B4003030B500EE
:1004AA004530B6002708C9002808CA004B21A70A08
:1004BA000319A80A00302606031D652A01302506FD
:1004CA00031D682A5F2A4130FC00EE30FD00FD0B57
:1004DA006C2AFC0B6C2A00002C30C90068210330FE
:1004EA00FB008A30FC005530FD00FD0B7A2AFC0B1C
:1004FA007A2AFB0B7A2A000000002B100D30FB0031
:10050A00AF30FC00B630FD00FD0B892AFC0B892AAE
:0A051A00FB0B892A0000132A912A26
:02400E006A2125
:00000001FF
